{
  "contractName": "Bank",
  "abi": [
    {
      "constant": true,
      "inputs": [
        {
          "name": "",
          "type": "address"
        }
      ],
      "name": "bank_d1",
      "outputs": [
        {
          "name": "name",
          "type": "string"
        },
        {
          "name": "bal",
          "type": "uint256"
        },
        {
          "name": "time",
          "type": "uint256"
        },
        {
          "name": "loan_interst",
          "type": "uint256"
        },
        {
          "name": "fixed_deposit_interst",
          "type": "uint256"
        },
        {
          "name": "account_deposit_interst",
          "type": "uint256"
        },
        {
          "name": "token_count",
          "type": "uint256"
        },
        {
          "name": "borrow_amount",
          "type": "uint256"
        },
        {
          "name": "lend_amount",
          "type": "uint256"
        }
      ],
      "payable": false,
      "stateMutability": "view",
      "type": "function"
    },
    {
      "constant": true,
      "inputs": [
        {
          "name": "",
          "type": "address"
        }
      ],
      "name": "ln_get_count",
      "outputs": [
        {
          "name": "",
          "type": "uint256"
        }
      ],
      "payable": false,
      "stateMutability": "view",
      "type": "function"
    },
    {
      "constant": true,
      "inputs": [
        {
          "name": "",
          "type": "address"
        },
        {
          "name": "",
          "type": "uint256"
        }
      ],
      "name": "my_ac_details",
      "outputs": [
        {
          "name": "",
          "type": "address"
        }
      ],
      "payable": false,
      "stateMutability": "view",
      "type": "function"
    },
    {
      "constant": true,
      "inputs": [
        {
          "name": "",
          "type": "address"
        }
      ],
      "name": "bank_client_ac_count",
      "outputs": [
        {
          "name": "",
          "type": "uint256"
        }
      ],
      "payable": false,
      "stateMutability": "view",
      "type": "function"
    },
    {
      "constant": true,
      "inputs": [
        {
          "name": "",
          "type": "address"
        }
      ],
      "name": "bank_client_count",
      "outputs": [
        {
          "name": "",
          "type": "uint256"
        }
      ],
      "payable": false,
      "stateMutability": "view",
      "type": "function"
    },
    {
      "constant": true,
      "inputs": [
        {
          "name": "",
          "type": "uint256"
        }
      ],
      "name": "reg_user",
      "outputs": [
        {
          "name": "",
          "type": "address"
        }
      ],
      "payable": false,
      "stateMutability": "view",
      "type": "function"
    },
    {
      "constant": true,
      "inputs": [
        {
          "name": "",
          "type": "address"
        },
        {
          "name": "",
          "type": "uint256"
        }
      ],
      "name": "ln_pro",
      "outputs": [
        {
          "name": "bank_address",
          "type": "address"
        },
        {
          "name": "amount",
          "type": "uint256"
        },
        {
          "name": "time",
          "type": "uint256"
        },
        {
          "name": "months",
          "type": "uint256"
        }
      ],
      "payable": false,
      "stateMutability": "view",
      "type": "function"
    },
    {
      "constant": true,
      "inputs": [
        {
          "name": "",
          "type": "address"
        }
      ],
      "name": "ln_pro_count",
      "outputs": [
        {
          "name": "",
          "type": "uint256"
        }
      ],
      "payable": false,
      "stateMutability": "view",
      "type": "function"
    },
    {
      "constant": true,
      "inputs": [
        {
          "name": "",
          "type": "address"
        },
        {
          "name": "",
          "type": "uint256"
        }
      ],
      "name": "my_acc_details",
      "outputs": [
        {
          "name": "",
          "type": "address"
        }
      ],
      "payable": false,
      "stateMutability": "view",
      "type": "function"
    },
    {
      "constant": true,
      "inputs": [
        {
          "name": "",
          "type": "address"
        }
      ],
      "name": "my_acc_count",
      "outputs": [
        {
          "name": "",
          "type": "uint256"
        }
      ],
      "payable": false,
      "stateMutability": "view",
      "type": "function"
    },
    {
      "constant": true,
      "inputs": [
        {
          "name": "",
          "type": "address"
        },
        {
          "name": "",
          "type": "address"
        }
      ],
      "name": "bank_client_Details",
      "outputs": [
        {
          "name": "bank_address",
          "type": "address"
        },
        {
          "name": "user_address",
          "type": "address"
        },
        {
          "name": "amount",
          "type": "uint256"
        },
        {
          "name": "start_time",
          "type": "uint256"
        },
        {
          "name": "end_time",
          "type": "uint256"
        },
        {
          "name": "year",
          "type": "uint256"
        },
        {
          "name": "check",
          "type": "bool"
        }
      ],
      "payable": false,
      "stateMutability": "view",
      "type": "function"
    },
    {
      "constant": true,
      "inputs": [
        {
          "name": "",
          "type": "address"
        },
        {
          "name": "",
          "type": "uint256"
        }
      ],
      "name": "bank_owner_clients_ac",
      "outputs": [
        {
          "name": "",
          "type": "address"
        }
      ],
      "payable": false,
      "stateMutability": "view",
      "type": "function"
    },
    {
      "constant": true,
      "inputs": [
        {
          "name": "",
          "type": "address"
        },
        {
          "name": "",
          "type": "uint256"
        }
      ],
      "name": "bank_owner_clients",
      "outputs": [
        {
          "name": "",
          "type": "address"
        }
      ],
      "payable": false,
      "stateMutability": "view",
      "type": "function"
    },
    {
      "constant": true,
      "inputs": [
        {
          "name": "",
          "type": "address"
        },
        {
          "name": "",
          "type": "uint256"
        }
      ],
      "name": "ln_get",
      "outputs": [
        {
          "name": "bank_address",
          "type": "address"
        },
        {
          "name": "amount",
          "type": "uint256"
        },
        {
          "name": "count",
          "type": "uint256"
        },
        {
          "name": "last_setl_time",
          "type": "uint256"
        },
        {
          "name": "time",
          "type": "uint256"
        },
        {
          "name": "months",
          "type": "uint256"
        },
        {
          "name": "bal_ln",
          "type": "uint256"
        },
        {
          "name": "installment",
          "type": "uint256"
        },
        {
          "name": "id",
          "type": "uint256"
        }
      ],
      "payable": false,
      "stateMutability": "view",
      "type": "function"
    },
    {
      "constant": true,
      "inputs": [
        {
          "name": "",
          "type": "address"
        }
      ],
      "name": "my_ac_count",
      "outputs": [
        {
          "name": "",
          "type": "uint256"
        }
      ],
      "payable": false,
      "stateMutability": "view",
      "type": "function"
    },
    {
      "constant": true,
      "inputs": [
        {
          "name": "",
          "type": "address"
        },
        {
          "name": "",
          "type": "address"
        }
      ],
      "name": "bank_client_ac_Details",
      "outputs": [
        {
          "name": "bank_address",
          "type": "address"
        },
        {
          "name": "user_address",
          "type": "address"
        },
        {
          "name": "amount",
          "type": "uint256"
        }
      ],
      "payable": false,
      "stateMutability": "view",
      "type": "function"
    },
    {
      "constant": false,
      "inputs": [
        {
          "name": "name",
          "type": "string"
        },
        {
          "name": "loan_interst",
          "type": "uint256"
        },
        {
          "name": "fixed_deposit",
          "type": "uint256"
        },
        {
          "name": "acc_dep_int",
          "type": "uint256"
        }
      ],
      "name": "register",
      "outputs": [
        {
          "name": "",
          "type": "string"
        }
      ],
      "payable": true,
      "stateMutability": "payable",
      "type": "function"
    },
    {
      "constant": true,
      "inputs": [],
      "name": "show_registers",
      "outputs": [
        {
          "name": "",
          "type": "address[]"
        }
      ],
      "payable": false,
      "stateMutability": "view",
      "type": "function"
    },
    {
      "constant": true,
      "inputs": [
        {
          "name": "index",
          "type": "uint256"
        },
        {
          "name": "intr_type",
          "type": "uint256"
        }
      ],
      "name": "show_bank_detail",
      "outputs": [
        {
          "name": "bank_name",
          "type": "string"
        },
        {
          "name": "tem_add",
          "type": "address"
        },
        {
          "name": "intr",
          "type": "uint256"
        }
      ],
      "payable": false,
      "stateMutability": "view",
      "type": "function"
    },
    {
      "constant": false,
      "inputs": [],
      "name": "deposit",
      "outputs": [],
      "payable": true,
      "stateMutability": "payable",
      "type": "function"
    },
    {
      "constant": false,
      "inputs": [
        {
          "name": "amount",
          "type": "uint256"
        }
      ],
      "name": "withdraw",
      "outputs": [],
      "payable": false,
      "stateMutability": "nonpayable",
      "type": "function"
    },
    {
      "constant": false,
      "inputs": [
        {
          "name": "to",
          "type": "address"
        },
        {
          "name": "amount",
          "type": "uint256"
        }
      ],
      "name": "transfer",
      "outputs": [],
      "payable": false,
      "stateMutability": "nonpayable",
      "type": "function"
    },
    {
      "constant": true,
      "inputs": [],
      "name": "GetBalance",
      "outputs": [
        {
          "name": "",
          "type": "uint256"
        }
      ],
      "payable": false,
      "stateMutability": "view",
      "type": "function"
    },
    {
      "constant": true,
      "inputs": [
        {
          "name": "_banker",
          "type": "address"
        }
      ],
      "name": "fetchBalance",
      "outputs": [
        {
          "name": "",
          "type": "uint256"
        }
      ],
      "payable": false,
      "stateMutability": "view",
      "type": "function"
    },
    {
      "constant": true,
      "inputs": [
        {
          "name": "_bank",
          "type": "address"
        }
      ],
      "name": "isRegistered",
      "outputs": [
        {
          "name": "",
          "type": "bool"
        }
      ],
      "payable": false,
      "stateMutability": "view",
      "type": "function"
    },
    {
      "constant": false,
      "inputs": [
        {
          "name": "bank_address",
          "type": "address"
        },
        {
          "name": "amt",
          "type": "uint256"
        },
        {
          "name": "year",
          "type": "uint8"
        }
      ],
      "name": "req_loan",
      "outputs": [],
      "payable": false,
      "stateMutability": "nonpayable",
      "type": "function"
    },
    {
      "constant": false,
      "inputs": [
        {
          "name": "ln_id",
          "type": "uint256"
        }
      ],
      "name": "settlement",
      "outputs": [],
      "payable": false,
      "stateMutability": "nonpayable",
      "type": "function"
    },
    {
      "constant": false,
      "inputs": [
        {
          "name": "bank_addr",
          "type": "address"
        },
        {
          "name": "year",
          "type": "uint256"
        }
      ],
      "name": "Fixed_Deposit",
      "outputs": [],
      "payable": true,
      "stateMutability": "payable",
      "type": "function"
    },
    {
      "constant": false,
      "inputs": [
        {
          "name": "bank_addr",
          "type": "address"
        }
      ],
      "name": "fixed_amount_get",
      "outputs": [],
      "payable": false,
      "stateMutability": "nonpayable",
      "type": "function"
    },
    {
      "constant": false,
      "inputs": [
        {
          "name": "user_address",
          "type": "address"
        }
      ],
      "name": "amount_settlement",
      "outputs": [],
      "payable": false,
      "stateMutability": "nonpayable",
      "type": "function"
    },
    {
      "constant": false,
      "inputs": [
        {
          "name": "bank_addr",
          "type": "address"
        }
      ],
      "name": "register_client",
      "outputs": [],
      "payable": false,
      "stateMutability": "nonpayable",
      "type": "function"
    },
    {
      "constant": false,
      "inputs": [
        {
          "name": "bank_addr",
          "type": "address"
        }
      ],
      "name": "deposit_client",
      "outputs": [],
      "payable": true,
      "stateMutability": "payable",
      "type": "function"
    },
    {
      "constant": false,
      "inputs": [
        {
          "name": "bank_addr",
          "type": "address"
        },
        {
          "name": "amount",
          "type": "uint256"
        }
      ],
      "name": "withdraw_client",
      "outputs": [],
      "payable": false,
      "stateMutability": "nonpayable",
      "type": "function"
    },
    {
      "constant": false,
      "inputs": [
        {
          "name": "bank_addr",
          "type": "address"
        },
        {
          "name": "to",
          "type": "address"
        },
        {
          "name": "amount",
          "type": "uint256"
        }
      ],
      "name": "transfer_client",
      "outputs": [],
      "payable": false,
      "stateMutability": "nonpayable",
      "type": "function"
    },
    {
      "constant": false,
      "inputs": [],
      "name": "give_interest",
      "outputs": [],
      "payable": false,
      "stateMutability": "nonpayable",
      "type": "function"
    }
  ],
  "bytecode": "0x6060604052341561000f57600080fd5b614b7e8061001e6000396000f3006060604052600436106101b7576000357c0100000000000000000000000000000000000000000000000000000000900463ffffffff16806324e1cf5b146101bc5780632e1a7d4d146101fe5780633b6afaa5146102215780633e9d0e391461028b578063489e0cf1146103925780634a3f687e146103cb57806360ad23911461041857806366f73ac71461043b5780636989bf15146104bd5780637413e96a1461050a5780637b30ccd51461055757806388e859f0146105ba57806389e3611b1461061b57806389fd322d146106b25780638e033a7a146106ff57806390a4a12614610781578063a16c1f15146107ce578063a1cb5f39146108b4578063a9059cbb14610902578063ac3528b914610944578063ac9dd7d914610a36578063b37fb75014610ab8578063b78d296b14610b3a578063bd82469514610bf4578063c3c5a54714610c22578063d0e30db014610c73578063d46531a214610c7d578063de014f9514610cca578063eb41fe4b14610da9578063ed2872b114610e7b578063f01ec38014610ec8578063f3da019714610f01578063f4224b7f14610f38578063f8f8a91214610f4d578063fc03865514610f76575b600080fd5b34156101c757600080fd5b6101fc600480803573ffffffffffffffffffffffffffffffffffffffff16906020019091908035906020019091905050610faf565b005b341561020957600080fd5b61021f600480803590602001909190505061111f565b005b341561022c57600080fd5b610234611251565b6040518080602001828103825283818151815260200191508051906020019060200280838360005b8381101561027757808201518184015260208101905061025c565b505050509050019250505060405180910390f35b341561029657600080fd5b6102c2600480803573ffffffffffffffffffffffffffffffffffffffff169060200190919050506112e5565b60405180806020018a815260200189815260200188815260200187815260200186815260200185815260200184815260200183815260200182810382528b81815460018160011615610100020316600290048152602001915080546001816001161561010002031660029004801561037b5780601f106103505761010080835404028352916020019161037b565b820191906000526020600020905b81548152906001019060200180831161035e57829003601f168201915b50509a505050505050505050505060405180910390f35b341561039d57600080fd5b6103c9600480803573ffffffffffffffffffffffffffffffffffffffff16906020019091905050611332565b005b34156103d657600080fd5b610402600480803573ffffffffffffffffffffffffffffffffffffffff16906020019091905050611726565b6040518082815260200191505060405180910390f35b341561042357600080fd5b610439600480803590602001909190505061173e565b005b341561044657600080fd5b61047b600480803573ffffffffffffffffffffffffffffffffffffffff16906020019091908035906020019091905050611be5565b604051808273ffffffffffffffffffffffffffffffffffffffff1673ffffffffffffffffffffffffffffffffffffffff16815260200191505060405180910390f35b34156104c857600080fd5b6104f4600480803573ffffffffffffffffffffffffffffffffffffffff16906020019091905050611c27565b6040518082815260200191505060405180910390f35b341561051557600080fd5b610541600480803573ffffffffffffffffffffffffffffffffffffffff16906020019091905050611c3f565b6040518082815260200191505060405180910390f35b341561056257600080fd5b6105786004808035906020019091905050611c57565b604051808273ffffffffffffffffffffffffffffffffffffffff1673ffffffffffffffffffffffffffffffffffffffff16815260200191505060405180910390f35b34156105c557600080fd5b610619600480803573ffffffffffffffffffffffffffffffffffffffff1690602001909190803573ffffffffffffffffffffffffffffffffffffffff16906020019091908035906020019091905050611c96565b005b341561062657600080fd5b61065b600480803573ffffffffffffffffffffffffffffffffffffffff16906020019091908035906020019091905050611e56565b604051808573ffffffffffffffffffffffffffffffffffffffff1673ffffffffffffffffffffffffffffffffffffffff16815260200184815260200183815260200182815260200194505050505060405180910390f35b34156106bd57600080fd5b6106e9600480803573ffffffffffffffffffffffffffffffffffffffff16906020019091905050611eb3565b6040518082815260200191505060405180910390f35b341561070a57600080fd5b61073f600480803573ffffffffffffffffffffffffffffffffffffffff16906020019091908035906020019091905050611ecb565b604051808273ffffffffffffffffffffffffffffffffffffffff1673ffffffffffffffffffffffffffffffffffffffff16815260200191505060405180910390f35b341561078c57600080fd5b6107b8600480803573ffffffffffffffffffffffffffffffffffffffff16906020019091905050611f0d565b6040518082815260200191505060405180910390f35b610839600480803590602001908201803590602001908080601f01602080910402602001604051908101604052809392919081815260200183838082843782019150505050505091908035906020019091908035906020019091908035906020019091905050611f25565b6040518080602001828103825283818151815260200191508051906020019080838360005b8381101561087957808201518184015260208101905061085e565b50505050905090810190601f1680156108a65780820380516001836020036101000a031916815260200191505b509250505060405180910390f35b34156108bf57600080fd5b610900600480803573ffffffffffffffffffffffffffffffffffffffff1690602001909190803590602001909190803560ff1690602001909190505061220c565b005b341561090d57600080fd5b610942600480803573ffffffffffffffffffffffffffffffffffffffff16906020019091908035906020019091905050612cfb565b005b341561094f57600080fd5b61099a600480803573ffffffffffffffffffffffffffffffffffffffff1690602001909190803573ffffffffffffffffffffffffffffffffffffffff16906020019091905050612e3d565b604051808873ffffffffffffffffffffffffffffffffffffffff1673ffffffffffffffffffffffffffffffffffffffff1681526020018773ffffffffffffffffffffffffffffffffffffffff1673ffffffffffffffffffffffffffffffffffffffff1681526020018681526020018581526020018481526020018381526020018215151515815260200197505050505050505060405180910390f35b3415610a4157600080fd5b610a76600480803573ffffffffffffffffffffffffffffffffffffffff16906020019091908035906020019091905050612ed9565b604051808273ffffffffffffffffffffffffffffffffffffffff1673ffffffffffffffffffffffffffffffffffffffff16815260200191505060405180910390f35b3415610ac357600080fd5b610af8600480803573ffffffffffffffffffffffffffffffffffffffff16906020019091908035906020019091905050612f1b565b604051808273ffffffffffffffffffffffffffffffffffffffff1673ffffffffffffffffffffffffffffffffffffffff16815260200191505060405180910390f35b3415610b4557600080fd5b610b7a600480803573ffffffffffffffffffffffffffffffffffffffff16906020019091908035906020019091905050612f5d565b604051808a73ffffffffffffffffffffffffffffffffffffffff1673ffffffffffffffffffffffffffffffffffffffff168152602001898152602001888152602001878152602001868152602001858152602001848152602001838152602001828152602001995050505050505050505060405180910390f35b610c20600480803573ffffffffffffffffffffffffffffffffffffffff16906020019091905050612fd8565b005b3415610c2d57600080fd5b610c59600480803573ffffffffffffffffffffffffffffffffffffffff16906020019091905050613195565b604051808215151515815260200191505060405180910390f35b610c7b6131e2565b005b3415610c8857600080fd5b610cb4600480803573ffffffffffffffffffffffffffffffffffffffff16906020019091905050613293565b6040518082815260200191505060405180910390f35b3415610cd557600080fd5b610cf460048080359060200190919080359060200190919050506132ab565b60405180806020018473ffffffffffffffffffffffffffffffffffffffff1673ffffffffffffffffffffffffffffffffffffffff168152602001838152602001828103825285818151815260200191508051906020019080838360005b83811015610d6c578082015181840152602081019050610d51565b50505050905090810190601f168015610d995780820380516001836020036101000a031916815260200191505b5094505050505060405180910390f35b3415610db457600080fd5b610dff600480803573ffffffffffffffffffffffffffffffffffffffff1690602001909190803573ffffffffffffffffffffffffffffffffffffffff169060200190919050506134c0565b604051808473ffffffffffffffffffffffffffffffffffffffff1673ffffffffffffffffffffffffffffffffffffffff1681526020018373ffffffffffffffffffffffffffffffffffffffff1673ffffffffffffffffffffffffffffffffffffffff168152602001828152602001935050505060405180910390f35b3415610e8657600080fd5b610eb2600480803573ffffffffffffffffffffffffffffffffffffffff16906020019091905050613537565b6040518082815260200191505060405180910390f35b3415610ed357600080fd5b610eff600480803573ffffffffffffffffffffffffffffffffffffffff16906020019091905050613582565b005b610f36600480803573ffffffffffffffffffffffffffffffffffffffff16906020019091908035906020019091905050613b29565b005b3415610f4357600080fd5b610f4b614308565b005b3415610f5857600080fd5b610f606145a1565b6040518082815260200191505060405180910390f35b3415610f8157600080fd5b610fad600480803573ffffffffffffffffffffffffffffffffffffffff1690602001909190505061463a565b005b806000808473ffffffffffffffffffffffffffffffffffffffff1673ffffffffffffffffffffffffffffffffffffffff1681526020019081526020016000206001015410151515610fff57600080fd5b80600b60008473ffffffffffffffffffffffffffffffffffffffff1673ffffffffffffffffffffffffffffffffffffffff16815260200190815260200160002060003373ffffffffffffffffffffffffffffffffffffffff1673ffffffffffffffffffffffffffffffffffffffff16815260200190815260200160002060020160008282540392505081905550806000808473ffffffffffffffffffffffffffffffffffffffff1673ffffffffffffffffffffffffffffffffffffffff168152602001908152602001600020600101600082825403925050819055503373ffffffffffffffffffffffffffffffffffffffff166108fc829081150290604051600060405180830381858888f19350505050151561111b57600080fd5b5050565b60008060003373ffffffffffffffffffffffffffffffffffffffff1673ffffffffffffffffffffffffffffffffffffffff168152602001908152602001600020600201541415151561117057600080fd5b806000803373ffffffffffffffffffffffffffffffffffffffff1673ffffffffffffffffffffffffffffffffffffffff168152602001908152602001600020600101541115156111bf57600080fd5b806000803373ffffffffffffffffffffffffffffffffffffffff1673ffffffffffffffffffffffffffffffffffffffff168152602001908152602001600020600101600082825403925050819055503373ffffffffffffffffffffffffffffffffffffffff166108fc829081150290604051600060405180830381858888f19350505050151561124e57600080fd5b50565b611259614a59565b60018054806020026020016040519081016040528092919081815260200182805480156112db57602002820191906000526020600020905b8160009054906101000a900473ffffffffffffffffffffffffffffffffffffffff1673ffffffffffffffffffffffffffffffffffffffff1681526020019060010190808311611291575b5050505050905090565b600060205280600052604060002060009150905080600001908060010154908060020154908060030154908060040154908060050154908060060154908060070154908060080154905089565b3373ffffffffffffffffffffffffffffffffffffffff168173ffffffffffffffffffffffffffffffffffffffff161415151561136d57600080fd5b80600b60008373ffffffffffffffffffffffffffffffffffffffff1673ffffffffffffffffffffffffffffffffffffffff16815260200190815260200160002060003373ffffffffffffffffffffffffffffffffffffffff1673ffffffffffffffffffffffffffffffffffffffff16815260200190815260200160002060000160006101000a81548173ffffffffffffffffffffffffffffffffffffffff021916908373ffffffffffffffffffffffffffffffffffffffff16021790555033600b60008373ffffffffffffffffffffffffffffffffffffffff1673ffffffffffffffffffffffffffffffffffffffff16815260200190815260200160002060003373ffffffffffffffffffffffffffffffffffffffff1673ffffffffffffffffffffffffffffffffffffffff16815260200190815260200160002060010160006101000a81548173ffffffffffffffffffffffffffffffffffffffff021916908373ffffffffffffffffffffffffffffffffffffffff16021790555033600c60008373ffffffffffffffffffffffffffffffffffffffff1673ffffffffffffffffffffffffffffffffffffffff1681526020019081526020016000206000600d60008573ffffffffffffffffffffffffffffffffffffffff1673ffffffffffffffffffffffffffffffffffffffff16815260200190815260200160002054815260200190815260200160002060006101000a81548173ffffffffffffffffffffffffffffffffffffffff021916908373ffffffffffffffffffffffffffffffffffffffff160217905550600d60008273ffffffffffffffffffffffffffffffffffffffff1673ffffffffffffffffffffffffffffffffffffffff1681526020019081526020016000206000815480929190600101919050555080600e60003373ffffffffffffffffffffffffffffffffffffffff1673ffffffffffffffffffffffffffffffffffffffff1681526020019081526020016000206000600f60003373ffffffffffffffffffffffffffffffffffffffff1673ffffffffffffffffffffffffffffffffffffffff16815260200190815260200160002054815260200190815260200160002060006101000a81548173ffffffffffffffffffffffffffffffffffffffff021916908373ffffffffffffffffffffffffffffffffffffffff160217905550600f60003373ffffffffffffffffffffffffffffffffffffffff1673ffffffffffffffffffffffffffffffffffffffff1681526020019081526020016000206000815480929190600101919050555050565b60036020528060005260406000206000915090505481565b6000806000806000806000600260003373ffffffffffffffffffffffffffffffffffffffff1673ffffffffffffffffffffffffffffffffffffffff1681526020019081526020016000206000898152602001908152602001600020600201549650600260003373ffffffffffffffffffffffffffffffffffffffff1673ffffffffffffffffffffffffffffffffffffffff1681526020019081526020016000206000898152602001908152602001600020600501549550600260003373ffffffffffffffffffffffffffffffffffffffff1673ffffffffffffffffffffffffffffffffffffffff1681526020019081526020016000206000898152602001908152602001600020600601549450600260003373ffffffffffffffffffffffffffffffffffffffff1673ffffffffffffffffffffffffffffffffffffffff1681526020019081526020016000206000898152602001908152602001600020600701549350600260003373ffffffffffffffffffffffffffffffffffffffff1673ffffffffffffffffffffffffffffffffffffffff168152602001908152602001600020600089815260200190815260200160002060000160009054906101000a900473ffffffffffffffffffffffffffffffffffffffff169250858710151561192557600080fd5b6000808473ffffffffffffffffffffffffffffffffffffffff1673ffffffffffffffffffffffffffffffffffffffff1681526020019081526020016000206003015491506064808381151561197657fe5b04860281151561198257fe5b0490506000803373ffffffffffffffffffffffffffffffffffffffff1673ffffffffffffffffffffffffffffffffffffffff16815260200190815260200160002060010154848201111515156119d757600080fd5b8381016000803373ffffffffffffffffffffffffffffffffffffffff1673ffffffffffffffffffffffffffffffffffffffff168152602001908152602001600020600101600082825403925050819055508381016000808573ffffffffffffffffffffffffffffffffffffffff1673ffffffffffffffffffffffffffffffffffffffff16815260200190815260200160002060010160008282540192505081905550836000803373ffffffffffffffffffffffffffffffffffffffff1673ffffffffffffffffffffffffffffffffffffffff16815260200190815260200160002060070160008282540392505081905550836000808573ffffffffffffffffffffffffffffffffffffffff1673ffffffffffffffffffffffffffffffffffffffff1681526020019081526020016000206008016000828254039250508190555083600260003373ffffffffffffffffffffffffffffffffffffffff1673ffffffffffffffffffffffffffffffffffffffff16815260200190815260200160002060008a815260200190815260200160002060060160008282540392505081905550600260003373ffffffffffffffffffffffffffffffffffffffff1673ffffffffffffffffffffffffffffffffffffffff1681526020019081526020016000206000898152602001908152602001600020600201600081548092919060010191905055505050505050505050565b600e6020528160005260406000206020528060005260406000206000915091509054906101000a900473ffffffffffffffffffffffffffffffffffffffff1681565b600d6020528060005260406000206000915090505481565b60086020528060005260406000206000915090505481565b600181815481101515611c6657fe5b90600052602060002090016000915054906101000a900473ffffffffffffffffffffffffffffffffffffffff1681565b806000808573ffffffffffffffffffffffffffffffffffffffff1673ffffffffffffffffffffffffffffffffffffffff1681526020019081526020016000206001015410151515611ce657600080fd5b80600b60008573ffffffffffffffffffffffffffffffffffffffff1673ffffffffffffffffffffffffffffffffffffffff16815260200190815260200160002060003373ffffffffffffffffffffffffffffffffffffffff1673ffffffffffffffffffffffffffffffffffffffff16815260200190815260200160002060020160008282540392505081905550806000808573ffffffffffffffffffffffffffffffffffffffff1673ffffffffffffffffffffffffffffffffffffffff16815260200190815260200160002060010160008282540392505081905550806000808473ffffffffffffffffffffffffffffffffffffffff1673ffffffffffffffffffffffffffffffffffffffff168152602001908152602001600020600101600082825401925050819055508173ffffffffffffffffffffffffffffffffffffffff166108fc829081150290604051600060405180830381858888f193505050501515611e5157600080fd5b505050565b6004602052816000526040600020602052806000526040600020600091509150508060000160009054906101000a900473ffffffffffffffffffffffffffffffffffffffff16908060010154908060020154908060030154905084565b60056020528060005260406000206000915090505481565b60096020528160005260406000206020528060005260406000206000915091509054906101000a900473ffffffffffffffffffffffffffffffffffffffff1681565b600a6020528060005260406000206000915090505481565b611f2d614a6d565b60008060003373ffffffffffffffffffffffffffffffffffffffff1673ffffffffffffffffffffffffffffffffffffffff1681526020019081526020016000206002015414156121cb57846000803373ffffffffffffffffffffffffffffffffffffffff1673ffffffffffffffffffffffffffffffffffffffff1681526020019081526020016000206000019080519060200190611fcc929190614a81565b50836000803373ffffffffffffffffffffffffffffffffffffffff1673ffffffffffffffffffffffffffffffffffffffff16815260200190815260200160002060030181905550826000803373ffffffffffffffffffffffffffffffffffffffff1673ffffffffffffffffffffffffffffffffffffffff16815260200190815260200160002060040181905550816000803373ffffffffffffffffffffffffffffffffffffffff1673ffffffffffffffffffffffffffffffffffffffff16815260200190815260200160002060050181905550346000803373ffffffffffffffffffffffffffffffffffffffff1673ffffffffffffffffffffffffffffffffffffffff16815260200190815260200160002060010181905550426000803373ffffffffffffffffffffffffffffffffffffffff1673ffffffffffffffffffffffffffffffffffffffff168152602001908152602001600020600201819055506001805480600101828161213f9190614b01565b9160005260206000209001600033909190916101000a81548173ffffffffffffffffffffffffffffffffffffffff021916908373ffffffffffffffffffffffffffffffffffffffff160217905550506040805190810160405280601781526020017f5375636365737366756c6c7920526567697374657265640000000000000000008152509050612204565b6040805190810160405280601481526020017f4163636f756e7420416c7265617920457869737400000000000000000000000081525090505b949350505050565b60008060003373ffffffffffffffffffffffffffffffffffffffff1673ffffffffffffffffffffffffffffffffffffffff168152602001908152602001600020600201541415151561225d57600080fd5b60008060008573ffffffffffffffffffffffffffffffffffffffff1673ffffffffffffffffffffffffffffffffffffffff16815260200190815260200160002060020154141515156122ae57600080fd5b3373ffffffffffffffffffffffffffffffffffffffff168373ffffffffffffffffffffffffffffffffffffffff16141515156122e957600080fd5b816000808573ffffffffffffffffffffffffffffffffffffffff1673ffffffffffffffffffffffffffffffffffffffff1681526020019081526020016000206001015411151561233857600080fd5b816000803373ffffffffffffffffffffffffffffffffffffffff1673ffffffffffffffffffffffffffffffffffffffff16815260200190815260200160002060010160008282540192505081905550816000808573ffffffffffffffffffffffffffffffffffffffff1673ffffffffffffffffffffffffffffffffffffffff16815260200190815260200160002060010160008282540392505081905550816000803373ffffffffffffffffffffffffffffffffffffffff1673ffffffffffffffffffffffffffffffffffffffff16815260200190815260200160002060070160008282540192505081905550816000808573ffffffffffffffffffffffffffffffffffffffff1673ffffffffffffffffffffffffffffffffffffffff1681526020019081526020016000206008016000828254019250508190555082600260003373ffffffffffffffffffffffffffffffffffffffff1673ffffffffffffffffffffffffffffffffffffffff1681526020019081526020016000206000600360003373ffffffffffffffffffffffffffffffffffffffff1673ffffffffffffffffffffffffffffffffffffffff16815260200190815260200160002054815260200190815260200160002060000160006101000a81548173ffffffffffffffffffffffffffffffffffffffff021916908373ffffffffffffffffffffffffffffffffffffffff16021790555081600260003373ffffffffffffffffffffffffffffffffffffffff1673ffffffffffffffffffffffffffffffffffffffff1681526020019081526020016000206000600360003373ffffffffffffffffffffffffffffffffffffffff1673ffffffffffffffffffffffffffffffffffffffff16815260200190815260200160002054815260200190815260200160002060010181905550600c810260ff16600260003373ffffffffffffffffffffffffffffffffffffffff1673ffffffffffffffffffffffffffffffffffffffff1681526020019081526020016000206000600360003373ffffffffffffffffffffffffffffffffffffffff1673ffffffffffffffffffffffffffffffffffffffff1681526020019081526020016000205481526020019081526020016000206005018190555042600260003373ffffffffffffffffffffffffffffffffffffffff1673ffffffffffffffffffffffffffffffffffffffff1681526020019081526020016000206000600360003373ffffffffffffffffffffffffffffffffffffffff1673ffffffffffffffffffffffffffffffffffffffff1681526020019081526020016000205481526020019081526020016000206004018190555042600260003373ffffffffffffffffffffffffffffffffffffffff1673ffffffffffffffffffffffffffffffffffffffff1681526020019081526020016000206000600360003373ffffffffffffffffffffffffffffffffffffffff1673ffffffffffffffffffffffffffffffffffffffff16815260200190815260200160002054815260200190815260200160002060030181905550600c810260ff16828115156127b857fe5b04600260003373ffffffffffffffffffffffffffffffffffffffff1673ffffffffffffffffffffffffffffffffffffffff1681526020019081526020016000206000600360003373ffffffffffffffffffffffffffffffffffffffff1673ffffffffffffffffffffffffffffffffffffffff1681526020019081526020016000205481526020019081526020016000206007018190555081600260003373ffffffffffffffffffffffffffffffffffffffff1673ffffffffffffffffffffffffffffffffffffffff1681526020019081526020016000206000600360003373ffffffffffffffffffffffffffffffffffffffff1673ffffffffffffffffffffffffffffffffffffffff16815260200190815260200160002054815260200190815260200160002060060181905550600360003373ffffffffffffffffffffffffffffffffffffffff1673ffffffffffffffffffffffffffffffffffffffff16815260200190815260200160002054600260003373ffffffffffffffffffffffffffffffffffffffff1673ffffffffffffffffffffffffffffffffffffffff1681526020019081526020016000206000600360003373ffffffffffffffffffffffffffffffffffffffff1673ffffffffffffffffffffffffffffffffffffffff1681526020019081526020016000205481526020019081526020016000206008018190555033600460008573ffffffffffffffffffffffffffffffffffffffff1673ffffffffffffffffffffffffffffffffffffffff1681526020019081526020016000206000600560008773ffffffffffffffffffffffffffffffffffffffff1673ffffffffffffffffffffffffffffffffffffffff16815260200190815260200160002054815260200190815260200160002060000160006101000a81548173ffffffffffffffffffffffffffffffffffffffff021916908373ffffffffffffffffffffffffffffffffffffffff16021790555081600460008573ffffffffffffffffffffffffffffffffffffffff1673ffffffffffffffffffffffffffffffffffffffff1681526020019081526020016000206000600560008773ffffffffffffffffffffffffffffffffffffffff1673ffffffffffffffffffffffffffffffffffffffff16815260200190815260200160002054815260200190815260200160002060010181905550600c810260ff16600460008573ffffffffffffffffffffffffffffffffffffffff1673ffffffffffffffffffffffffffffffffffffffff1681526020019081526020016000206000600560008773ffffffffffffffffffffffffffffffffffffffff1673ffffffffffffffffffffffffffffffffffffffff1681526020019081526020016000205481526020019081526020016000206003018190555042600460008573ffffffffffffffffffffffffffffffffffffffff1673ffffffffffffffffffffffffffffffffffffffff1681526020019081526020016000206000600560008773ffffffffffffffffffffffffffffffffffffffff1673ffffffffffffffffffffffffffffffffffffffff16815260200190815260200160002054815260200190815260200160002060020181905550600560008473ffffffffffffffffffffffffffffffffffffffff1673ffffffffffffffffffffffffffffffffffffffff16815260200190815260200160002060008154809291906001019190505550600360003373ffffffffffffffffffffffffffffffffffffffff1673ffffffffffffffffffffffffffffffffffffffff16815260200190815260200160002060008154809291906001019190505550505050565b60008060003373ffffffffffffffffffffffffffffffffffffffff1673ffffffffffffffffffffffffffffffffffffffff1681526020019081526020016000206002015414151515612d4c57600080fd5b806000803373ffffffffffffffffffffffffffffffffffffffff1673ffffffffffffffffffffffffffffffffffffffff16815260200190815260200160002060010154111515612d9b57600080fd5b806000808473ffffffffffffffffffffffffffffffffffffffff1673ffffffffffffffffffffffffffffffffffffffff16815260200190815260200160002060010160008282540192505081905550806000803373ffffffffffffffffffffffffffffffffffffffff1673ffffffffffffffffffffffffffffffffffffffff168152602001908152602001600020600101600082825403925050819055505050565b6006602052816000526040600020602052806000526040600020600091509150508060000160009054906101000a900473ffffffffffffffffffffffffffffffffffffffff16908060010160009054906101000a900473ffffffffffffffffffffffffffffffffffffffff16908060020154908060030154908060040154908060050154908060060160009054906101000a900460ff16905087565b600c6020528160005260406000206020528060005260406000206000915091509054906101000a900473ffffffffffffffffffffffffffffffffffffffff1681565b60076020528160005260406000206020528060005260406000206000915091509054906101000a900473ffffffffffffffffffffffffffffffffffffffff1681565b6002602052816000526040600020602052806000526040600020600091509150508060000160009054906101000a900473ffffffffffffffffffffffffffffffffffffffff16908060010154908060020154908060030154908060040154908060050154908060060154908060070154908060080154905089565b3373ffffffffffffffffffffffffffffffffffffffff16600b60008373ffffffffffffffffffffffffffffffffffffffff1673ffffffffffffffffffffffffffffffffffffffff16815260200190815260200160002060003373ffffffffffffffffffffffffffffffffffffffff1673ffffffffffffffffffffffffffffffffffffffff16815260200190815260200160002060010160009054906101000a900473ffffffffffffffffffffffffffffffffffffffff1673ffffffffffffffffffffffffffffffffffffffff161415156130b6576130b581611332565b5b34600b60008373ffffffffffffffffffffffffffffffffffffffff1673ffffffffffffffffffffffffffffffffffffffff16815260200190815260200160002060003373ffffffffffffffffffffffffffffffffffffffff1673ffffffffffffffffffffffffffffffffffffffff16815260200190815260200160002060020160008282540192505081905550346000808373ffffffffffffffffffffffffffffffffffffffff1673ffffffffffffffffffffffffffffffffffffffff1681526020019081526020016000206001016000828254019250508190555050565b6000806000808473ffffffffffffffffffffffffffffffffffffffff1673ffffffffffffffffffffffffffffffffffffffff16815260200190815260200160002060020154119050919050565b60008060003373ffffffffffffffffffffffffffffffffffffffff1673ffffffffffffffffffffffffffffffffffffffff168152602001908152602001600020600201541415151561323357600080fd5b60003411151561324257600080fd5b346000803373ffffffffffffffffffffffffffffffffffffffff1673ffffffffffffffffffffffffffffffffffffffff16815260200190815260200160002060010160008282540192505081905550565b600f6020528060005260406000206000915090505481565b6132b3614a6d565b6000806001858154811015156132c557fe5b906000526020600020900160009054906101000a900473ffffffffffffffffffffffffffffffffffffffff1691506000808373ffffffffffffffffffffffffffffffffffffffff1673ffffffffffffffffffffffffffffffffffffffff1681526020019081526020016000206000018054600181600116156101000203166002900480601f0160208091040260200160405190810160405280929190818152602001828054600181600116156101000203166002900480156133c85780601f1061339d576101008083540402835291602001916133c8565b820191906000526020600020905b8154815290600101906020018083116133ab57829003601f168201915b50505050509250600084141561341d576000808373ffffffffffffffffffffffffffffffffffffffff1673ffffffffffffffffffffffffffffffffffffffff1681526020019081526020016000206003015490505b600184141561346b576000808373ffffffffffffffffffffffffffffffffffffffff1673ffffffffffffffffffffffffffffffffffffffff1681526020019081526020016000206004015490505b60028414156134b9576000808373ffffffffffffffffffffffffffffffffffffffff1673ffffffffffffffffffffffffffffffffffffffff1681526020019081526020016000206005015490505b9250925092565b600b602052816000526040600020602052806000526040600020600091509150508060000160009054906101000a900473ffffffffffffffffffffffffffffffffffffffff16908060010160009054906101000a900473ffffffffffffffffffffffffffffffffffffffff16908060020154905083565b60008060008373ffffffffffffffffffffffffffffffffffffffff1673ffffffffffffffffffffffffffffffffffffffff168152602001908152602001600020600101549050919050565b600080600080600060011515600660008873ffffffffffffffffffffffffffffffffffffffff1673ffffffffffffffffffffffffffffffffffffffff16815260200190815260200160002060003373ffffffffffffffffffffffffffffffffffffffff1673ffffffffffffffffffffffffffffffffffffffff16815260200190815260200160002060060160009054906101000a900460ff16151514151561362957600080fd5b600660008773ffffffffffffffffffffffffffffffffffffffff1673ffffffffffffffffffffffffffffffffffffffff16815260200190815260200160002060003373ffffffffffffffffffffffffffffffffffffffff1673ffffffffffffffffffffffffffffffffffffffff168152602001908152602001600020600501549050600660008773ffffffffffffffffffffffffffffffffffffffff1673ffffffffffffffffffffffffffffffffffffffff16815260200190815260200160002060003373ffffffffffffffffffffffffffffffffffffffff1673ffffffffffffffffffffffffffffffffffffffff1681526020019081526020016000206002015494506000808773ffffffffffffffffffffffffffffffffffffffff1673ffffffffffffffffffffffffffffffffffffffff168152602001908152602001600020600401549350600660008773ffffffffffffffffffffffffffffffffffffffff1673ffffffffffffffffffffffffffffffffffffffff16815260200190815260200160002060003373ffffffffffffffffffffffffffffffffffffffff1673ffffffffffffffffffffffffffffffffffffffff1681526020019081526020016000206004015491508142101515613998576064808581151561380957fe5b048287020281151561381757fe5b04850192506000808773ffffffffffffffffffffffffffffffffffffffff1673ffffffffffffffffffffffffffffffffffffffff16815260200190815260200160002060010154831115151561386c57600080fd5b826000808873ffffffffffffffffffffffffffffffffffffffff1673ffffffffffffffffffffffffffffffffffffffff168152602001908152602001600020600101600082825403925050819055503373ffffffffffffffffffffffffffffffffffffffff166108fc849081150290604051600060405180830381858888f1935050505015156138fb57600080fd5b6000600660008873ffffffffffffffffffffffffffffffffffffffff1673ffffffffffffffffffffffffffffffffffffffff16815260200190815260200160002060003373ffffffffffffffffffffffffffffffffffffffff1673ffffffffffffffffffffffffffffffffffffffff16815260200190815260200160002060060160006101000a81548160ff021916908315150217905550613b21565b6064858115156139a457fe5b04850392506000808773ffffffffffffffffffffffffffffffffffffffff1673ffffffffffffffffffffffffffffffffffffffff1681526020019081526020016000206001015483111515156139f957600080fd5b826000808873ffffffffffffffffffffffffffffffffffffffff1673ffffffffffffffffffffffffffffffffffffffff168152602001908152602001600020600101600082825403925050819055503373ffffffffffffffffffffffffffffffffffffffff166108fc849081150290604051600060405180830381858888f193505050501515613a8857600080fd5b6000600660008873ffffffffffffffffffffffffffffffffffffffff1673ffffffffffffffffffffffffffffffffffffffff16815260200190815260200160002060003373ffffffffffffffffffffffffffffffffffffffff1673ffffffffffffffffffffffffffffffffffffffff16815260200190815260200160002060060160006101000a81548160ff0219169083151502179055505b505050505050565b60008060008473ffffffffffffffffffffffffffffffffffffffff1673ffffffffffffffffffffffffffffffffffffffff1681526020019081526020016000206002015414151515613b7a57600080fd5b60001515600660008473ffffffffffffffffffffffffffffffffffffffff1673ffffffffffffffffffffffffffffffffffffffff16815260200190815260200160002060003373ffffffffffffffffffffffffffffffffffffffff1673ffffffffffffffffffffffffffffffffffffffff16815260200190815260200160002060060160009054906101000a900460ff161515141515613c1957600080fd5b3373ffffffffffffffffffffffffffffffffffffffff168273ffffffffffffffffffffffffffffffffffffffff1614151515613c5457600080fd5b81600660008473ffffffffffffffffffffffffffffffffffffffff1673ffffffffffffffffffffffffffffffffffffffff16815260200190815260200160002060003373ffffffffffffffffffffffffffffffffffffffff1673ffffffffffffffffffffffffffffffffffffffff16815260200190815260200160002060000160006101000a81548173ffffffffffffffffffffffffffffffffffffffff021916908373ffffffffffffffffffffffffffffffffffffffff16021790555033600660008473ffffffffffffffffffffffffffffffffffffffff1673ffffffffffffffffffffffffffffffffffffffff16815260200190815260200160002060003373ffffffffffffffffffffffffffffffffffffffff1673ffffffffffffffffffffffffffffffffffffffff16815260200190815260200160002060010160006101000a81548173ffffffffffffffffffffffffffffffffffffffff021916908373ffffffffffffffffffffffffffffffffffffffff16021790555033600760008473ffffffffffffffffffffffffffffffffffffffff1673ffffffffffffffffffffffffffffffffffffffff1681526020019081526020016000206000600860008673ffffffffffffffffffffffffffffffffffffffff1673ffffffffffffffffffffffffffffffffffffffff16815260200190815260200160002054815260200190815260200160002060006101000a81548173ffffffffffffffffffffffffffffffffffffffff021916908373ffffffffffffffffffffffffffffffffffffffff160217905550600860008373ffffffffffffffffffffffffffffffffffffffff1673ffffffffffffffffffffffffffffffffffffffff1681526020019081526020016000206000815480929190600101919050555081600960003373ffffffffffffffffffffffffffffffffffffffff1673ffffffffffffffffffffffffffffffffffffffff1681526020019081526020016000206000600a60003373ffffffffffffffffffffffffffffffffffffffff1673ffffffffffffffffffffffffffffffffffffffff16815260200190815260200160002054815260200190815260200160002060006101000a81548173ffffffffffffffffffffffffffffffffffffffff021916908373ffffffffffffffffffffffffffffffffffffffff160217905550600a60003373ffffffffffffffffffffffffffffffffffffffff1673ffffffffffffffffffffffffffffffffffffffff16815260200190815260200160002060008154809291906001019190505550346000808473ffffffffffffffffffffffffffffffffffffffff1673ffffffffffffffffffffffffffffffffffffffff1681526020019081526020016000206001016000828254019250508190555034600660008473ffffffffffffffffffffffffffffffffffffffff1673ffffffffffffffffffffffffffffffffffffffff16815260200190815260200160002060003373ffffffffffffffffffffffffffffffffffffffff1673ffffffffffffffffffffffffffffffffffffffff1681526020019081526020016000206002018190555042600660008473ffffffffffffffffffffffffffffffffffffffff1673ffffffffffffffffffffffffffffffffffffffff16815260200190815260200160002060003373ffffffffffffffffffffffffffffffffffffffff1673ffffffffffffffffffffffffffffffffffffffff1681526020019081526020016000206003018190555060784201600660008473ffffffffffffffffffffffffffffffffffffffff1673ffffffffffffffffffffffffffffffffffffffff16815260200190815260200160002060003373ffffffffffffffffffffffffffffffffffffffff1673ffffffffffffffffffffffffffffffffffffffff1681526020019081526020016000206004018190555080600660008473ffffffffffffffffffffffffffffffffffffffff1673ffffffffffffffffffffffffffffffffffffffff16815260200190815260200160002060003373ffffffffffffffffffffffffffffffffffffffff1673ffffffffffffffffffffffffffffffffffffffff168152602001908152602001600020600501819055506001600660008473ffffffffffffffffffffffffffffffffffffffff1673ffffffffffffffffffffffffffffffffffffffff16815260200190815260200160002060003373ffffffffffffffffffffffffffffffffffffffff1673ffffffffffffffffffffffffffffffffffffffff16815260200190815260200160002060060160006101000a81548160ff0219169083151502179055505050565b60008060008060008090505b600d60003373ffffffffffffffffffffffffffffffffffffffff1673ffffffffffffffffffffffffffffffffffffffff1681526020019081526020016000205481101561459a57600c60003373ffffffffffffffffffffffffffffffffffffffff1673ffffffffffffffffffffffffffffffffffffffff168152602001908152602001600020600082815260200190815260200160002060009054906101000a900473ffffffffffffffffffffffffffffffffffffffff169450600b60003373ffffffffffffffffffffffffffffffffffffffff1673ffffffffffffffffffffffffffffffffffffffff16815260200190815260200160002060008673ffffffffffffffffffffffffffffffffffffffff1673ffffffffffffffffffffffffffffffffffffffff1681526020019081526020016000206002015493506000803373ffffffffffffffffffffffffffffffffffffffff1673ffffffffffffffffffffffffffffffffffffffff168152602001908152602001600020600501549250606480848115156144a157fe5b0485028115156144ad57fe5b0491506000803373ffffffffffffffffffffffffffffffffffffffff1673ffffffffffffffffffffffffffffffffffffffff16815260200190815260200160002060010154821115151561450057600080fd5b81600b60003373ffffffffffffffffffffffffffffffffffffffff1673ffffffffffffffffffffffffffffffffffffffff16815260200190815260200160002060008773ffffffffffffffffffffffffffffffffffffffff1673ffffffffffffffffffffffffffffffffffffffff168152602001908152602001600020600201600082825401925050819055508080600101915050614314565b5050505050565b6000806000803373ffffffffffffffffffffffffffffffffffffffff1673ffffffffffffffffffffffffffffffffffffffff16815260200190815260200160002060020154141515156145f357600080fd5b6000803373ffffffffffffffffffffffffffffffffffffffff1673ffffffffffffffffffffffffffffffffffffffff16815260200190815260200160002060010154905090565b600080600080600060011515600660003373ffffffffffffffffffffffffffffffffffffffff1673ffffffffffffffffffffffffffffffffffffffff16815260200190815260200160002060008873ffffffffffffffffffffffffffffffffffffffff1673ffffffffffffffffffffffffffffffffffffffff16815260200190815260200160002060060160009054906101000a900460ff1615151415156146e157600080fd5b600660003373ffffffffffffffffffffffffffffffffffffffff1673ffffffffffffffffffffffffffffffffffffffff16815260200190815260200160002060008773ffffffffffffffffffffffffffffffffffffffff1673ffffffffffffffffffffffffffffffffffffffff16815260200190815260200160002060040154915081421015151561477257600080fd5b600660003373ffffffffffffffffffffffffffffffffffffffff1673ffffffffffffffffffffffffffffffffffffffff16815260200190815260200160002060008773ffffffffffffffffffffffffffffffffffffffff1673ffffffffffffffffffffffffffffffffffffffff168152602001908152602001600020600501549050600660003373ffffffffffffffffffffffffffffffffffffffff1673ffffffffffffffffffffffffffffffffffffffff16815260200190815260200160002060008773ffffffffffffffffffffffffffffffffffffffff1673ffffffffffffffffffffffffffffffffffffffff1681526020019081526020016000206002015494506000803373ffffffffffffffffffffffffffffffffffffffff1673ffffffffffffffffffffffffffffffffffffffff168152602001908152602001600020600401549350606480858115156148c757fe5b04828702028115156148d557fe5b04850192506000803373ffffffffffffffffffffffffffffffffffffffff1673ffffffffffffffffffffffffffffffffffffffff16815260200190815260200160002060010154831115151561492a57600080fd5b826000803373ffffffffffffffffffffffffffffffffffffffff1673ffffffffffffffffffffffffffffffffffffffff168152602001908152602001600020600101600082825403925050819055508573ffffffffffffffffffffffffffffffffffffffff166108fc849081150290604051600060405180830381858888f1935050505015156149b957600080fd5b6000600660003373ffffffffffffffffffffffffffffffffffffffff1673ffffffffffffffffffffffffffffffffffffffff16815260200190815260200160002060008873ffffffffffffffffffffffffffffffffffffffff1673ffffffffffffffffffffffffffffffffffffffff16815260200190815260200160002060060160006101000a81548160ff021916908315150217905550505050505050565b602060405190810160405280600081525090565b602060405190810160405280600081525090565b828054600181600116156101000203166002900490600052602060002090601f016020900481019282601f10614ac257805160ff1916838001178555614af0565b82800160010185558215614af0579182015b82811115614aef578251825591602001919060010190614ad4565b5b509050614afd9190614b2d565b5090565b815481835581811511614b2857818360005260206000209182019101614b279190614b2d565b5b505050565b614b4f91905b80821115614b4b576000816000905550600101614b33565b5090565b905600a165627a7a72305820713ef73932a56302b4ea9d05ccc6d062db5c46d2973a755f4b10e61b8ca1be480029",
  "source": "pragma solidity^0.4.0;\r\ncontract Bank\r\n{\r\n    \r\n    //Register contract functions\r\n    struct bank_Details\r\n    {\r\n        string name;\r\n        uint bal;\r\n        uint time;\r\n        uint loan_interst;\r\n        uint fixed_deposit_interst;\r\n        uint account_deposit_interst;\r\n        uint token_count;\r\n        uint borrow_amount;\r\n        uint lend_amount;\r\n    }\r\n    \r\n    mapping(address => bank_Details) public bank_d1;\r\n    address[] public reg_user;\r\n\r\n    \r\n    function register(string name, uint loan_interst, uint fixed_deposit, uint acc_dep_int) public payable returns(string)\r\n    {\r\n        if(bank_d1[msg.sender].time == 0)\r\n        {\r\n            bank_d1[msg.sender].name = name;\r\n            bank_d1[msg.sender].loan_interst = loan_interst;\r\n            bank_d1[msg.sender].fixed_deposit_interst = fixed_deposit;\r\n            bank_d1[msg.sender].account_deposit_interst = acc_dep_int;\r\n            bank_d1[msg.sender].bal = msg.value;\r\n            bank_d1[msg.sender].time = now;\r\n        \r\n            reg_user.push(msg.sender);\r\n            return \"Successfully Registered\";\r\n        }\r\n        else\r\n        {\r\n            return \"Account Alreay Exist\";\r\n        }\r\n    }\r\n  \r\n    function show_registers() public view returns(address[])\r\n    {\r\n        return reg_user;\r\n    }\r\n\r\n    \r\n    function show_bank_detail(uint index,uint intr_type)public view returns(string bank_name,address tem_add,uint intr)\r\n    {\r\n        tem_add = reg_user[index];\r\n        bank_name = bank_d1[tem_add].name;\r\n        if(intr_type == 0)\r\n        {\r\n            intr = bank_d1[tem_add].loan_interst;\r\n        }\r\n        if(intr_type == 1)\r\n        {\r\n            intr = bank_d1[tem_add].fixed_deposit_interst;\r\n        }\r\n        if(intr_type == 2)\r\n        {\r\n            intr = bank_d1[tem_add].account_deposit_interst;\r\n        }\r\n    }\r\n\r\n\r\n    //Bank Contract Basic functions\r\n    modifier ch_register()\r\n    {\r\n        require(bank_d1[msg.sender].time != 0);\r\n        _;\r\n    }\r\n   \r\n    function deposit()  public payable ch_register\r\n    {\r\n        require(msg.value > 0);\r\n        bank_d1[msg.sender].bal += msg.value;\r\n    }\r\n   \r\n    function withdraw(uint256 amount) ch_register public\r\n    {\r\n        require(bank_d1[msg.sender].bal > amount);\r\n        bank_d1[msg.sender].bal -= amount;\r\n        msg.sender.transfer(amount);\r\n    }\r\n   \r\n    function transfer(address to,uint256 amount) ch_register public\r\n    {  \r\n        require(bank_d1[msg.sender].bal > amount);\r\n        bank_d1[to].bal += amount;\r\n        bank_d1[msg.sender].bal -= amount; //amount transfered to other persion bank address\r\n        //to.transfer(amount);\r\n    }\r\n    \r\n    function GetBalance() ch_register public constant returns (uint256)\r\n    {\r\n        return bank_d1[msg.sender].bal;\r\n    }\r\n\r\n    function fetchBalance(address _banker) public constant returns (uint256)\r\n    {\r\n        return bank_d1[_banker].bal;\r\n    }\r\n\r\n    function isRegistered(address _bank) public constant returns (bool) {\r\n      return bank_d1[_bank].time > 0;\r\n    }\r\n\r\n\r\n\r\n\r\n    //Loan_Details contract functions\r\n    struct loan_get\r\n    {\r\n        address bank_address;\r\n        uint amount;\r\n        uint count;\r\n        uint last_setl_time;\r\n        uint time;\r\n        uint months;\r\n        uint bal_ln;\r\n        uint installment;\r\n        uint id;\r\n    }\r\n    \r\n    mapping (address => mapping(uint256 => loan_get)) public ln_get;\r\n    mapping(address => uint256) public ln_get_count;\r\n    \r\n    struct loan_pro\r\n    {\r\n        address bank_address;\r\n        uint256 amount;\r\n        uint time;\r\n        uint months;\r\n    }\r\n    \r\n    mapping (address => mapping(uint256 => loan_pro)) public ln_pro;\r\n    mapping(address => uint256)public ln_pro_count;\r\n    \r\n    function req_loan(address bank_address,uint256 amt,uint8 year) public //payable\r\n    {\r\n        require(bank_d1[msg.sender].time!=0);\r\n        require(bank_d1[bank_address].time!=0);\r\n        require(bank_address!=msg.sender);\r\n        \r\n        require (bank_d1[bank_address].bal > amt );\r\n            \r\n        bank_d1[msg.sender].bal += amt;\r\n        //msg.sender.transfer(amt);\r\n        bank_d1[bank_address].bal -= amt;\r\n        \r\n        bank_d1[msg.sender].borrow_amount += amt;\r\n        bank_d1[bank_address].lend_amount += amt;\r\n        \r\n        ln_get[msg.sender][ln_get_count[msg.sender]].bank_address = bank_address;\r\n        ln_get[msg.sender][ln_get_count[msg.sender]].amount = amt;\r\n        ln_get[msg.sender][ln_get_count[msg.sender]].months = year*12;\r\n        ln_get[msg.sender][ln_get_count[msg.sender]].time = now;\r\n        ln_get[msg.sender][ln_get_count[msg.sender]].last_setl_time = now;\r\n        ln_get[msg.sender][ln_get_count[msg.sender]].installment = (amt) / (year*12);\r\n        ln_get[msg.sender][ln_get_count[msg.sender]].bal_ln = amt;\r\n        ln_get[msg.sender][ln_get_count[msg.sender]].id = ln_get_count[msg.sender];\r\n        \r\n        ln_pro[bank_address][ln_pro_count[bank_address]].bank_address = msg.sender;\r\n        ln_pro[bank_address][ln_pro_count[bank_address]].amount = amt;\r\n        ln_pro[bank_address][ln_pro_count[bank_address]].months = year*12;\r\n        ln_pro[bank_address][ln_pro_count[bank_address]].time = now;\r\n        \r\n        ln_pro_count[bank_address]++;\r\n        ln_get_count[msg.sender]++;\r\n    }\r\n    \r\n    function settlement(uint ln_id) public\r\n    {\r\n        uint temp_count = ln_get[msg.sender][ln_id].count;\r\n        uint temp_month = ln_get[msg.sender][ln_id].months;\r\n        uint temp_bal_ln = ln_get[msg.sender][ln_id].bal_ln;\r\n        uint temp_ins = ln_get[msg.sender][ln_id].installment;\r\n        //uint temp_last = ln_get[msg.sender][ln_id].last_setl_time + 1 minutes; //30 days;\r\n        address temp_bank_address = ln_get[msg.sender][ln_id].bank_address;\r\n        \r\n        require(temp_count < temp_month);\r\n        //require(temp_last <= now);\r\n        \r\n        uint intr = bank_d1[temp_bank_address].loan_interst;\r\n        uint amont = ( temp_bal_ln * (intr/100) ) /100;\r\n        \r\n        require(amont + temp_ins <= bank_d1[msg.sender].bal);\r\n        \r\n        bank_d1[msg.sender].bal -= amont + temp_ins;\r\n        bank_d1[temp_bank_address].bal += amont + temp_ins;\r\n\r\n        bank_d1[msg.sender].borrow_amount -= temp_ins;\r\n        bank_d1[temp_bank_address].lend_amount -= temp_ins;\r\n        \r\n        //ln_get[msg.sender][ln_id].last_setl_time = temp_last ;//30 days;\r\n        ln_get[msg.sender][ln_id].bal_ln -= temp_ins;\r\n        ln_get[msg.sender][ln_id].count++;\r\n    }\r\n\r\n\r\n\r\n\r\n    \r\n    //Fixed_Deposit contract functions\r\n    struct Bank_Client\r\n    {\r\n        address bank_address;\r\n        address user_address;\r\n        uint256 amount;\r\n        uint256 start_time;\r\n        uint256 end_time;\r\n        uint256 year;\r\n        bool check;\r\n    }\r\n\r\n    mapping(address => mapping(address => Bank_Client)) public bank_client_Details;\r\n\r\n    //Bank can stores the users details\r\n    mapping(address => mapping(uint256 => address)) public bank_owner_clients;\r\n    mapping(address => uint256) public bank_client_count;\r\n\r\n    //User can stores the deposited bank details\r\n    mapping(address => mapping(uint256 => address)) public my_acc_details;\r\n    mapping(address => uint256) public my_acc_count;\r\n\r\n    function Fixed_Deposit(address bank_addr, uint256 year) public payable\r\n    {\r\n        require(bank_d1[bank_addr].time != 0);\r\n        \r\n        require( bank_client_Details[bank_addr][msg.sender].check == false );\r\n        require(bank_addr != msg.sender);\r\n        bank_client_Details[bank_addr][msg.sender].bank_address = bank_addr;\r\n        bank_client_Details[bank_addr][msg.sender].user_address = msg.sender;\r\n        bank_owner_clients[bank_addr][ bank_client_count[bank_addr] ] = msg.sender;\r\n        bank_client_count[bank_addr]++;\r\n\r\n        my_acc_details[msg.sender][ my_acc_count [msg.sender] ] = bank_addr;\r\n        my_acc_count[msg.sender]++;\r\n        \r\n        bank_d1[bank_addr].bal += msg.value;\r\n        \r\n        bank_client_Details[bank_addr][msg.sender].amount = msg.value;\r\n        bank_client_Details[bank_addr][msg.sender].start_time = now;\r\n        bank_client_Details[bank_addr][msg.sender].end_time =now + 2 minutes;//now + (year *1 years);\r\n        bank_client_Details[bank_addr][msg.sender].year = year;\r\n        bank_client_Details[bank_addr][msg.sender].check = true;\r\n        \r\n    }\r\n\r\n    \r\n    function fixed_amount_get(address bank_addr) public\r\n    {\r\n        require( bank_client_Details[bank_addr][msg.sender].check == true );\r\n        \r\n        uint256 temp_amount;\r\n        uint256 temp_interest;\r\n        uint256 temp_int_amt;\r\n        uint256 temp_end_time;\r\n        uint256 temp_year;\r\n        \r\n        temp_year = bank_client_Details[bank_addr][msg.sender].year;\r\n        temp_amount = bank_client_Details[bank_addr][msg.sender].amount;\r\n        temp_interest = bank_d1[bank_addr].fixed_deposit_interst;\r\n        temp_end_time = bank_client_Details[bank_addr][msg.sender].end_time;\r\n        \r\n        if ( now >= temp_end_time )\r\n        {\r\n            temp_int_amt = temp_amount + ( (temp_amount * temp_year * (temp_interest/100)) / 100 );\r\n            \r\n            require(temp_int_amt <= bank_d1[bank_addr].bal);\r\n            \r\n            bank_d1[bank_addr].bal -= temp_int_amt;\r\n            msg.sender.transfer( temp_int_amt );\r\n            \r\n            bank_client_Details[bank_addr][msg.sender].check = false;\r\n        }\r\n        \r\n        else\r\n        {\r\n            temp_int_amt = temp_amount - (temp_amount / 100) ;\r\n            \r\n            require(temp_int_amt <= bank_d1[bank_addr].bal);\r\n            \r\n            bank_d1[bank_addr].bal -= temp_int_amt;\r\n            msg.sender.transfer( temp_int_amt );\r\n            \r\n            bank_client_Details[bank_addr][msg.sender].check = false;\r\n        }\r\n    }        \r\n       \r\n    \r\n    \r\n    function amount_settlement(address user_address) public\r\n    {\r\n        \r\n        uint256 temp_amount;\r\n        uint256 temp_interest;\r\n        uint256 temp_int_amt;\r\n        uint256 temp_end_time;\r\n        uint256 temp_year;\r\n        \r\n        \r\n        require( bank_client_Details[msg.sender][user_address].check == true );\r\n        \r\n        temp_end_time = bank_client_Details[msg.sender][user_address].end_time;\r\n        require ( now >= temp_end_time );\r\n        \r\n        temp_year = bank_client_Details[msg.sender][user_address].year;\r\n        temp_amount = bank_client_Details[msg.sender][user_address].amount;\r\n        temp_interest = bank_d1[msg.sender].fixed_deposit_interst;\r\n        \r\n        temp_int_amt = temp_amount + ( (temp_amount * temp_year * (temp_interest / 100)) / 100 );\r\n        \r\n        require(temp_int_amt <= bank_d1[msg.sender].bal);\r\n        \r\n        bank_d1[msg.sender].bal -= temp_int_amt;\r\n        user_address.transfer( temp_int_amt );\r\n        \r\n        bank_client_Details[msg.sender][user_address].check = false;\r\n    \r\n    }\r\n\r\n    \r\n    \r\n    \r\n    \r\n    //Bank act as a Client (dep,withdraw,trans) contract functions\r\n    struct Bank_Client_Ac\r\n    {\r\n        address bank_address;\r\n        address user_address;\r\n        uint256 amount;\r\n    }\r\n\r\n    mapping(address => mapping(address => Bank_Client_Ac)) public bank_client_ac_Details;\r\n\r\n    //Bank can stores the users details\r\n    mapping(address => mapping(uint256 => address)) public bank_owner_clients_ac;\r\n    mapping(address => uint256) public bank_client_ac_count;\r\n\r\n    //User can stores the deposited bank details\r\n    mapping(address => mapping(uint256 => address)) public my_ac_details;\r\n    mapping(address => uint256) public my_ac_count;\r\n\r\n    function register_client(address bank_addr) public\r\n    {\r\n        require(bank_addr != msg.sender);\r\n        bank_client_ac_Details[bank_addr][msg.sender].bank_address = bank_addr;\r\n        bank_client_ac_Details[bank_addr][msg.sender].user_address = msg.sender;\r\n        bank_owner_clients_ac[bank_addr][ bank_client_ac_count[bank_addr] ] = msg.sender;\r\n        bank_client_ac_count[bank_addr]++;\r\n\r\n        my_ac_details[msg.sender][ my_ac_count[msg.sender] ] = bank_addr;\r\n        my_ac_count[msg.sender]++;\r\n    }\r\n\r\n    function deposit_client(address bank_addr) public payable\r\n    {\r\n        \r\n        if(bank_client_ac_Details[bank_addr][msg.sender].user_address != msg.sender)\r\n        {\r\n            register_client(bank_addr);\r\n        }\r\n        \r\n        bank_client_ac_Details [bank_addr] [msg.sender].amount += msg.value;\r\n        bank_d1 [bank_addr].bal += msg.value;\r\n        \r\n    }\r\n    \r\n    function withdraw_client(address bank_addr, uint256 amount) public\r\n    {\r\n        require(bank_d1 [bank_addr].bal >= amount);\r\n        \r\n        //require(bank_client_Details [bank_addr] [msg.sender].user_address != msg.sender);\r\n        //bank_d1[msg.sender].bal += amount;\r\n        bank_client_ac_Details [bank_addr] [msg.sender].amount -= amount;\r\n        bank_d1 [bank_addr].bal -= amount;\r\n        msg.sender.transfer(amount);\r\n    }\r\n    \r\n    function transfer_client(address bank_addr, address to, uint256 amount) public\r\n    {\r\n        require(bank_d1 [bank_addr].bal >= amount);\r\n         \r\n        //require(bank_client_Details [bank_addr] [msg.sender].user_address != msg.sender);\r\n        //bank_d1[msg.sender].bal += amount;\r\n        bank_client_ac_Details [bank_addr] [msg.sender].amount -= amount;\r\n        bank_d1[bank_addr].bal -=amount;\r\n        bank_d1[to].bal += amount;\r\n        to.transfer(amount);\r\n    }\r\n    \r\n    \r\n    function give_interest() public\r\n    {\r\n        address temp_bank_address;\r\n        uint256 temp_amount;\r\n        uint256 temp_interest;\r\n        uint256 temp_int_amt;\r\n        \r\n        for(uint256 i=0;i<bank_client_ac_count[msg.sender];i++)\r\n        {\r\n            temp_bank_address = bank_owner_clients_ac[msg.sender][i];\r\n            temp_amount = bank_client_ac_Details[msg.sender][temp_bank_address].amount;\r\n            temp_interest = bank_d1[msg.sender].account_deposit_interst;\r\n            \r\n            temp_int_amt=( temp_amount * (temp_interest/100) )/100;\r\n            \r\n            require(temp_int_amt <= bank_d1[msg.sender].bal);\r\n            \r\n            bank_client_ac_Details[msg.sender][temp_bank_address].amount += temp_int_amt;\r\n        }\r\n    }\r\n}",
  "sourcePath": "D:\\truffle\\6face\\6\\contracts\\Bank.sol",
  "compiler": {
    "name": "solc",
    "version": "0.4.19+commit.c4cbbb05.Emscripten.clang"
  },
  "schemaVersion": "2.0.0",
  "updatedAt": "2018-04-06T11:27:14.906Z"
}