{
  "contractName": "Register",
  "abi": [
    {
      "constant": true,
      "inputs": [
        {
          "name": "",
          "type": "address"
        }
      ],
      "name": "bank_d1",
      "outputs": [
        {
          "name": "name",
          "type": "string"
        },
        {
          "name": "bal",
          "type": "uint256"
        },
        {
          "name": "time",
          "type": "uint256"
        },
        {
          "name": "loan_interst",
          "type": "uint256"
        },
        {
          "name": "fixed_deposit_interst",
          "type": "uint256"
        },
        {
          "name": "account_deposit_interst",
          "type": "uint256"
        },
        {
          "name": "token_count",
          "type": "uint256"
        },
        {
          "name": "borrow_amount",
          "type": "uint256"
        },
        {
          "name": "lend_amount",
          "type": "uint256"
        }
      ],
      "payable": false,
      "stateMutability": "view",
      "type": "function"
    },
    {
      "constant": true,
      "inputs": [
        {
          "name": "",
          "type": "uint256"
        }
      ],
      "name": "reg_user",
      "outputs": [
        {
          "name": "",
          "type": "address"
        }
      ],
      "payable": false,
      "stateMutability": "view",
      "type": "function"
    },
    {
      "constant": false,
      "inputs": [
        {
          "name": "name",
          "type": "string"
        },
        {
          "name": "_loan_interst",
          "type": "uint256"
        },
        {
          "name": "_fixed_deposit",
          "type": "uint256"
        },
        {
          "name": "_acc_dep_int",
          "type": "uint256"
        }
      ],
      "name": "register",
      "outputs": [
        {
          "name": "",
          "type": "string"
        }
      ],
      "payable": true,
      "stateMutability": "payable",
      "type": "function"
    },
    {
      "constant": true,
      "inputs": [],
      "name": "show_registers",
      "outputs": [
        {
          "name": "",
          "type": "address[]"
        }
      ],
      "payable": false,
      "stateMutability": "view",
      "type": "function"
    },
    {
      "constant": true,
      "inputs": [
        {
          "name": "index",
          "type": "uint256"
        },
        {
          "name": "intr_type",
          "type": "uint256"
        }
      ],
      "name": "show_bank_detail",
      "outputs": [
        {
          "name": "bank_name",
          "type": "string"
        },
        {
          "name": "tem_add",
          "type": "address"
        },
        {
          "name": "intr",
          "type": "uint256"
        }
      ],
      "payable": false,
      "stateMutability": "view",
      "type": "function"
    }
  ],
  "bytecode": "0x6060604052341561000f57600080fd5b610b4c8061001e6000396000f30060606040526004361061006d576000357c0100000000000000000000000000000000000000000000000000000000900463ffffffff1680633b6afaa5146100725780633e9d0e39146100dc5780637b30ccd5146101e3578063a16c1f1514610246578063de014f951461032c575b600080fd5b341561007d57600080fd5b61008561040b565b6040518080602001828103825283818151815260200191508051906020019060200280838360005b838110156100c85780820151818401526020810190506100ad565b505050509050019250505060405180910390f35b34156100e757600080fd5b610113600480803573ffffffffffffffffffffffffffffffffffffffff1690602001909190505061049f565b60405180806020018a815260200189815260200188815260200187815260200186815260200185815260200184815260200183815260200182810382528b8181546001816001161561010002031660029004815260200191508054600181600116156101000203166002900480156101cc5780601f106101a1576101008083540402835291602001916101cc565b820191906000526020600020905b8154815290600101906020018083116101af57829003601f168201915b50509a505050505050505050505060405180910390f35b34156101ee57600080fd5b61020460048080359060200190919050506104ec565b604051808273ffffffffffffffffffffffffffffffffffffffff1673ffffffffffffffffffffffffffffffffffffffff16815260200191505060405180910390f35b6102b1600480803590602001908201803590602001908080601f0160208091040260200160405190810160405280939291908181526020018383808284378201915050505050509190803590602001909190803590602001909190803590602001909190505061052b565b6040518080602001828103825283818151815260200191508051906020019080838360005b838110156102f15780820151818401526020810190506102d6565b50505050905090810190601f16801561031e5780820380516001836020036101000a031916815260200191505b509250505060405180910390f35b341561033757600080fd5b6103566004808035906020019091908035906020019091905050610812565b60405180806020018473ffffffffffffffffffffffffffffffffffffffff1673ffffffffffffffffffffffffffffffffffffffff168152602001838152602001828103825285818151815260200191508051906020019080838360005b838110156103ce5780820151818401526020810190506103b3565b50505050905090810190601f1680156103fb5780820380516001836020036101000a031916815260200191505b5094505050505060405180910390f35b610413610a27565b600180548060200260200160405190810160405280929190818152602001828054801561049557602002820191906000526020600020905b8160009054906101000a900473ffffffffffffffffffffffffffffffffffffffff1673ffffffffffffffffffffffffffffffffffffffff168152602001906001019080831161044b575b5050505050905090565b600060205280600052604060002060009150905080600001908060010154908060020154908060030154908060040154908060050154908060060154908060070154908060080154905089565b6001818154811015156104fb57fe5b90600052602060002090016000915054906101000a900473ffffffffffffffffffffffffffffffffffffffff1681565b610533610a3b565b60008060003373ffffffffffffffffffffffffffffffffffffffff1673ffffffffffffffffffffffffffffffffffffffff1681526020019081526020016000206002015414156107d157846000803373ffffffffffffffffffffffffffffffffffffffff1673ffffffffffffffffffffffffffffffffffffffff16815260200190815260200160002060000190805190602001906105d2929190610a4f565b50836000803373ffffffffffffffffffffffffffffffffffffffff1673ffffffffffffffffffffffffffffffffffffffff16815260200190815260200160002060030181905550826000803373ffffffffffffffffffffffffffffffffffffffff1673ffffffffffffffffffffffffffffffffffffffff16815260200190815260200160002060040181905550816000803373ffffffffffffffffffffffffffffffffffffffff1673ffffffffffffffffffffffffffffffffffffffff16815260200190815260200160002060050181905550346000803373ffffffffffffffffffffffffffffffffffffffff1673ffffffffffffffffffffffffffffffffffffffff16815260200190815260200160002060010181905550426000803373ffffffffffffffffffffffffffffffffffffffff1673ffffffffffffffffffffffffffffffffffffffff16815260200190815260200160002060020181905550600180548060010182816107459190610acf565b9160005260206000209001600033909190916101000a81548173ffffffffffffffffffffffffffffffffffffffff021916908373ffffffffffffffffffffffffffffffffffffffff160217905550506040805190810160405280601781526020017f5375636365737366756c6c792052656769737465726564000000000000000000815250905061080a565b6040805190810160405280601481526020017f4163636f756e7420416c7265617920457869737400000000000000000000000081525090505b949350505050565b61081a610a3b565b60008060018581548110151561082c57fe5b906000526020600020900160009054906101000a900473ffffffffffffffffffffffffffffffffffffffff1691506000808373ffffffffffffffffffffffffffffffffffffffff1673ffffffffffffffffffffffffffffffffffffffff1681526020019081526020016000206000018054600181600116156101000203166002900480601f01602080910402602001604051908101604052809291908181526020018280546001816001161561010002031660029004801561092f5780601f106109045761010080835404028352916020019161092f565b820191906000526020600020905b81548152906001019060200180831161091257829003601f168201915b505050505092506000841415610984576000808373ffffffffffffffffffffffffffffffffffffffff1673ffffffffffffffffffffffffffffffffffffffff1681526020019081526020016000206003015490505b60018414156109d2576000808373ffffffffffffffffffffffffffffffffffffffff1673ffffffffffffffffffffffffffffffffffffffff1681526020019081526020016000206004015490505b6002841415610a20576000808373ffffffffffffffffffffffffffffffffffffffff1673ffffffffffffffffffffffffffffffffffffffff1681526020019081526020016000206005015490505b9250925092565b602060405190810160405280600081525090565b602060405190810160405280600081525090565b828054600181600116156101000203166002900490600052602060002090601f016020900481019282601f10610a9057805160ff1916838001178555610abe565b82800160010185558215610abe579182015b82811115610abd578251825591602001919060010190610aa2565b5b509050610acb9190610afb565b5090565b815481835581811511610af657818360005260206000209182019101610af59190610afb565b5b505050565b610b1d91905b80821115610b19576000816000905550600101610b01565b5090565b905600a165627a7a723058206d6c2e82dba07e1db815b73e08ed79edebf2e975240533225abc0f5775557c200029",
  "source": "pragma solidity^0.4.0;\r\ncontract Register\r\n{\r\n    struct bank_Details\r\n    {\r\n        string name;\r\n        uint256 bal;\r\n        uint256 time;\r\n        uint256 loan_interst;\r\n        uint fixed_deposit_interst;\r\n        uint account_deposit_interst;\r\n        uint token_count;\r\n        uint borrow_amount;\r\n        uint lend_amount;\r\n    }\r\n    \r\n    mapping(address => bank_Details) public bank_d1;\r\n    //mapping(uint => address) public reg_user;\r\n    address[] public reg_user;\r\n\r\n    \r\n    function register(string name,uint _loan_interst,uint _fixed_deposit,uint _acc_dep_int)public payable returns(string)\r\n    {\r\n        if(bank_d1[msg.sender].time == 0)\r\n        {\r\n            bank_d1[msg.sender].name = name;\r\n            bank_d1[msg.sender].loan_interst = _loan_interst;\r\n            bank_d1[msg.sender].fixed_deposit_interst = _fixed_deposit;\r\n            bank_d1[msg.sender].account_deposit_interst = _acc_dep_int;\r\n            bank_d1[msg.sender].bal = msg.value;\r\n            bank_d1[msg.sender].time = now;\r\n        \r\n            reg_user.push(msg.sender);\r\n            return \"Successfully Registered\";\r\n        }\r\n        else\r\n        {\r\n            return \"Account Alreay Exist\";\r\n        }\r\n    }\r\n  \r\n    function show_registers() public view returns(address[])\r\n    {\r\n        return reg_user;\r\n    }\r\n    function show_bank_detail(uint index,uint intr_type)public view returns(string bank_name,address tem_add,uint intr)\r\n    {\r\n        tem_add=reg_user[index];\r\n        bank_name=bank_d1[tem_add].name;\r\n        if(intr_type == 0)\r\n        {\r\n            intr = bank_d1[tem_add].loan_interst;\r\n        }\r\n        if(intr_type == 1)\r\n        {\r\n            intr = bank_d1[tem_add].fixed_deposit_interst;\r\n        }\r\n        if(intr_type == 2)\r\n        {\r\n            intr = bank_d1[tem_add].account_deposit_interst;\r\n        }\r\n    }\r\n}\r\n",
  "sourcePath": "D:\\truffle\\6face\\6\\contracts\\Register.sol",
  "compiler": {
    "name": "solc",
    "version": "0.4.19+commit.c4cbbb05.Emscripten.clang"
  },
  "schemaVersion": "2.0.0",
  "updatedAt": "2018-04-06T06:31:26.588Z"
}